:100000000C9451020C9495020C94B0020C9495023D
:100010000C9495020C9495020C9495020C94950204
:100020000C9495020C9495020C948C180C949502E7
:100030000C9495020C9495020C9495020C949502E4
:100040000C9495020C9495020C9495020C949502D4
:100050000C94950200003A003B003C003D003E003D
:100060003F004000410042004300440045000000C2
:100070000000165C1E001F0020002100220023004B
:1000800024002500260027002D002E002A004B000A
:100090002B0014001A000800150017001C0018009F
:1000A0000C00120013002F00300031004E00390008
:1000B00004001600070009000A000B000D000E00E6
:1000C0000F0033003400280000004A00E1001D004A
:1000D0001B00060019000500050011001000360085
:1000E00037003800E50052004D00E000E300E20078
:1000F00000002C00015100002C000000E600000070
:10010000E400500051004F00000001000100010018
:1001100001000100010001000100010001000100D7
:1001200001000000000001000100010001000100C9
:1001300001000100010001000100010001000100B7
:10014000010001000100010001000100005C01004C
:100150000100010001000100010001000100010097
:100160000100010001000100010001000100010087
:100170000100010001000100010001000000010078
:100180000100010001000100010001000100010067
:1001900001000100010001000100A90001000100AF
:1001A000010001000000010001000000010000004A
:1001B0000100000001000100AA0001000000010090
:1001C0000100010001000100010001000100010027
:1001D0000100010001000000000001000100010019
:1001E0000100010001000100010001000100010007
:1001F00001000100010001000100010001000100F7
:1002000001000100010001000100010001000100E6
:1002100001000100010001000100010001000100D6
:1002200001000100010001000100010001000100C6
:1002300000000100010001000100010001000100B7
:1002400001000100010001000100010001000100A6
:100250000100010001000100000001000100000098
:100260000100000001000000010001000100010088
:100270000000010001000100010001000100010077
:100280000100010001000100010000000000010068
:100290000100010001000100010001000100010056
:1002A0000100010001000100010001000100010046
:1002B0000100010001000100010001000100010036
:1002C0000100010001000100010001000100010026
:1002D0000100010001000100010001000100010016
:1002E0000100010000000100010001000100010007
:1002F00001000100010001000100010001000100F6
:1003000001000100010001000100010000000100E6
:1003100001000000010000000100000001000100D8
:1003200001000100000000000000000000000000CB
:1003300000000000000000007E0F00D4FFFFFFC798
:100340000000007800000000000000002A2B2800B8
:100350000000000000000000000000000000002974
:10036000000000002C1E3420212224342627252EB4
:10037000362D3738271E1F202122232425263333EC
:10038000362E37381F0405060708090A0B0C0D0E18
:100390000F101112131415161718191A1B1C1D2FE4
:1003A0003130232D350405060708090A0B0C0D0E04
:1003B0000F101112131415161718191A1B1C1D2FC4
:1003C0003130354C0660FF0961A101096215002634
:1003D000FF009520750881020963150026FF00952E
:1003E0002075089102C005010906A101050719E061
:1003F00029E7150025019508750181029501750809
:1004000081030507190029FF150026FF00950675D1
:1004100008810005081901290595057501910295C6
:100420000175039103C00403300000000E03420075
:100430006F006E0073006100690000000C03520041
:10044000650074006E0065000000040309040902E1
:100450004200020100A0FA090400000103010100AA
:100460000921010100012240000705810308000164
:100470000904010002030000000921010100022219
:100480002200070584030800010705040308000192
:10049000120110010000000865726F620100010284
:1004A000030111241FBECFE5D8E0DEBFCDBF04B6E7
:1004B00003FE24C08091440290914502A09146021F
:1004C000B09147028730904BA740B04BB9F41092DF
:1004D000440210924502109246021092470214BE46
:1004E00084B7877F84BF0FB6F894A89581B58861DB
:1004F00081BD11BC0FBEE0E0F8E3099522E0A2E85F
:10050000B0E001C01D92A434B207E1F710E0A0E60C
:10051000B0E0EAE5F2E302C005900D92A238B1071F
:10052000D9F70E946D150C94FE180C940000A82FAA
:10053000B92F80E090E041E050EA609530E009C0DA
:100540002D9182279795879510F084279527305E07
:10055000C8F36F5FA8F30895EADF8D939D93089524
:10056000CF93CFB7CF93DF93C395839BE9F7839B5B
:1005700010C0839B0EC0839B0CC0839B0AC0839BCF
:1005800008C0839B06C0C0911E02C395C0931E0283
:100590008EC06F93C0911D02DD27CE5DDD4F2F937E
:1005A00065E5839B03C02F916F91E1CF0F931F935C
:1005B0004F9320E040E15F9300B30C7003FB27F9F9
:1005C0003F9350E03BE039C01C7040642F77012F0F
:1005D0005F5F1EC0406810B31C702F7752501FC061
:1005E000406400B32F770C70D1F15F5F00C023C06F
:1005F000406210B32F771C7091F15F5F00C025C07F
:100600000C701027515012F45D5F000011502795B7
:100610002C3F10B3C8F61C700127015027952C3FC2
:10062000C8F64227499300B30C7010274F7311503E
:1006300027952C3FA8F64695469510B31C7079F087
:100640000127015027952C3F98F66B5A60F33150E3
:1006500000B3B0F600C010E81ABF00271CC03B5022
:100660003195C31BD04010E81ABF0881033C21F12B
:100670000B3411F120911B021981110F1213EDCFD0
:100680004A81441F093679F10D3211F0013E29F7F4
:100690004F7009F0042F009321023F915F914F9119
:1006A0001F910F912F916F91CAB7C7FD5DCFDF9159
:1006B000CF91CFBFCF91189520912102222369F3CA
:1006C00010911F02112309F049C034300AF448C0C8
:1006D00030931F0220931C0210911D023BE0311B3E
:1006E00030931D023DC000911F020130BCF50AE5A8
:1006F0004F7049F430916B0034FD33C000936B00B0
:10070000C8EFD1E032C0433059F0443091F030911D
:10071000030234FD26C000930302C4E0D2E025C0EA
:100720003091380234FD1DC000933802C9E3D2E095
:100730001CC030910F0234FD14C000930F02C0E1C1
:10074000D2E013C0052710E000C0000002BB1AC0B1
:10075000052710E0221F1DC010E021C04AE502C09D
:1007600032ED432FC4E1D0E032E011B31C60939A24
:1007700002B311BB5CE020E865E320FF052702BB64
:10078000279517951C3FF0F66695B8F7B1F720FF4F
:10079000052702BB279517951C3FD0F6279517957F
:1007A00017FF052700001C3F02BBB0F629913A95C0
:1007B00019F7037F10912002110FC651D04002BBE0
:1007C00011F010931B0210E81ABF086011B3137FD9
:1007D000402F437F54E05A95F1F702BB11BB42BB57
:1007E0005CCFFC018381833061F130F48130C9F04A
:1007F0008230F9F080E00895813209F446C08232F7
:10080000C9F7248135812115310509F44FC0213004
:10081000310581F724EC33E03093D3012093D201EA
:10082000089580E994E09093D3018093D20182E10E
:1008300008958EE494E09093D3018093D20182E4F2
:1008400008958281813089F0882339F08230A9F0BF
:10085000833081F686E294E002C08AE494E09093CB
:10086000D3018093D20184E008958CE394E09093C7
:10087000D3018093D2018CE008958CE294E09093B0
:10088000D3018093D2018EE008958281882331F0D4
:10089000813009F0AFCF89E794E002C080E694E0B0
:1008A0009093D3018093D20189E0089586EE93E07E
:1008B0009093D3018093D20180E408950895089520
:1008C00008958091CD01089588E198E00FB6F894DD
:1008D000A89581BD0FBE91BDA895F894D8E0CEE54E
:1008E00028E3299320E0299314BEFFCF08959C01AB
:1008F0004FB7F8948091300190913101A09132016D
:10090000B09133014FBF821B930B08952FB7F8941A
:100910008091300190913101A0913201B091330169
:100920002FBF089580910D01811110920D0108953E
:1009300080910C0190910B01892B90910A01892BD8
:100940008093820090910D01992391F0892B8093DF
:10095000820020E084E890E0FC013191CF01311168
:100960002F5FF0E08A389F07B9F721110E949204A7
:10097000E0911201F0911301309731F00280F38180
:10098000E02D82E890E009940895E4E8F0E0919188
:10099000891303C0DF0111971C9290E0EA38F90730
:1009A000B1F70895A4E8B0E0EFEF90E02D91821741
:1009B00051F0EF3F19F4211101C0E92F9F5F9630EC
:1009C000A9F7EF3F09F408950E2E000CFF0BEE5728
:1009D000FF4F828308952FE0929F800D1124982F5E
:1009E000977086958695869525E0829FF001112463
:1009F000E353FF4F50E040E080E0219130E0092ECA
:100A000002C0369527950A94E2F721703327042E09
:100A100001C0220F0A94EAF7822B4F5F5F4F4530E7
:100A2000510559F708952FE0929F800D1124982FBA
:100A3000977041E001C0440F9A95EAF78695869534
:100A4000869595E0899FF0011124E353FF4F90E0D4
:100A500080E070E05191DF0111979B01082E02C0E8
:100A6000369527950A94E2F72170219525272423AE
:100A700025272C9301968530910561F708956093A1
:100A8000F4017093F5018093F6019093F7011092B1
:100A90000B0110920A010C9498040F931F9360911C
:100AA000F4017091F5018091F6019091F7018B01AD
:100AB0009C010670112722273327063011052105D6
:100AC000310529F468601F910F910C943F05677FF1
:100AD000FACF0F931F9341E050E060E070E004C054
:100AE000440F551F661F771F8A95D2F7CB01BA01B5
:100AF00060957095809590950091F4011091F501A5
:100B00002091F6013091F701602371238223932312
:100B10001F910F910C943F059091090180958923B5
:100B200080930901282F277071F4282F082E000CBC
:100B3000330B9217130639F08595859585950E949C
:100B400069051092090108950F931F9341E050E049
:100B500060E070E004C0440F551F661F771F8A9540
:100B6000D2F78091F4019091F501A091F601B09136
:100B7000F7018A019B01082B192B2A2B3B2BC9015A
:100B8000B8011F910F910C943F0560930E01709373
:100B90000F01809310019093110110920B0110929C
:100BA0000A010C9498048091CC0090919B009813BA
:100BB00001C008958F5F8770FACF882341F0809538
:100BC00090910C01892380930C010C949804089552
:100BD000882339F090910C01982B90930C010C9480
:100BE00098040895E0911201F0911301309721F0DB
:100BF0000190F081E02D099480E00895882309F4A4
:100C000074C0823871F40E94F20581FF6EC089E3DE
:100C10000E94D2040E94980489E30E94C5040C94A7
:100C20009804833859F40E94F20580FF5EC083E582
:100C30000E94D2040E94980483E5EFCF843859F4CF
:100C40000E94F20582FF51C087E40E94D2040E94F4
:100C5000980487E4E2CF9CEF980F913AF0F290E28B
:100C6000980F983088F4877021E030E0A90102C025
:100C7000440F551F8A95E2F7CA01809590910C01A7
:100C8000892380930C01CBCF9BE5980F9330B0F470
:100C90008091910090919200892B39F110929200ED
:100CA00010929100E0911201F09113013097E9F058
:100CB0000680F781E02D90E080E00994885A873122
:100CC000A0F48091930090919400892B71F0109280
:100CD000940010929300E0911201F091130130976B
:100CE00021F00084F185E02DE6CF08959091200158
:100CF00092FF06C0282F28712830F9F4877F84607E
:100D000093FF06C0282F28712831F1F4877E846173
:100D10002091210120FF06C0382F38713830D9F4D6
:100D2000877F816021FF06C0282F28712831D1F4E8
:100D3000877E816194FD877E0895282F2471243059
:100D4000F9F68B7F8860DCCF282F2471243101F7DE
:100D50008B7E8861DDCF382F3171313019F78E7F6E
:100D60008860E0CF282F2171213121F78E7E8861A4
:100D7000E1CFCF93DF9380911F02835087FD14C092
:100D800090911D02CCE0D0E0C91BD109CE5DDD4FB2
:100D900090911C02903108F06BC0883009F453C068
:100DA0001092C20110921F0280916B0084FF3EC01E
:100DB00080916A008F3FD1F1C82F893008F0C8E0D8
:100DC000982F9C1B90936A009091F80128E8922735
:100DD0009093F8018823E9F08091D2019091D3019A
:100DE0002091D10126FF06C1FC012C2FA9EFB1E013
:100DF00034913D9331962150D9F79C012F5F3F4F9D
:100E00008FEF8C0F820F932F911D9093D3018093BE
:100E1000D2016C2F89EF91E00E94AC02CC5FCC3004
:100E200019F08FEF80936A00C0936B0084E190B358
:100E30009C7031F48150D9F71092200210921B025D
:100E4000DF91CF9108958091C201893108F0A8CF38
:100E5000E82FF0E0EC52FE4F9E01285F3F4F999142
:100E600091932C173D07D9F7885F8093C2019ACFE1
:100E70009D3209F0A3C0883009F094CF83EC8093B1
:100E8000F8018AE580936B001092D1018881807609
:100E900009F447C0803229F58981813099F48C8129
:100EA0009D81892BF1F484EC91E09093D3018093A0
:100EB000D20188E09F81911131C09E81981770F511
:100EC000892F2CC0823041F483EC91E09093D301C0
:100ED0008093D20181E0EECF8A3029F48B81809318
:100EE000C30180E0E7CF8930E1F78A819B818115DA
:100EF000924069F48C819D81892B49F481E0809333
:100F0000D0018E819F819093CF018093CE01888103
:100F100087FF52C08E8190E89093D10180936A0040
:100F200041CF2A8110920102998191110AC0109239
:100F3000020221E032E082E03093D3012093D2011B
:100F4000B9CF953029F42093200221E032E0F4CF8C
:100F50009630C1F49B81913049F4CE010E94F10397
:100F600090E49093D1018F3F91F2A4CF9230A9F3F6
:100F7000933099F3913289F3923279F390E490931C
:100F8000D10198CF983089F0993019F42093CC0191
:100F9000DCCF9A3071F09B30C1F69BE49093040251
:100FA0009093390290931002D0CF2CEC31E081E085
:100FB000C3CF21E032E0FBCF8FEFADCF8091D101E5
:100FC00087FFF0CE8091CE019091CF01892B71F0F7
:100FD0008091D001813051F488818093CD011092AD
:100FE000CF011092CE0110926A00DCCE8EE1809388
:100FF0006B00D8CEDC012C2FE9EFF1E03D9131936D
:101000002150E1F7FACE1F93CF93DF93E82F792F8A
:10101000162FEA01888184FF1CC0298188E82827CF
:101020002983CE010296DC012E2F372F512F5E0F20
:10103000F90121912D939F01452F4E1B1416C4F3E6
:10104000612F0E94AC021C5F1883DF91CF911F912A
:1010500008958AE58883E5CFCF93DF93C4EDD1E08F
:1010600080910F0284FF18C04FE052E068E0CE018B
:101070000E940308289681E0C43FD80789F7809131
:101080000F0284FF0CC04FE052E060E090E080E08F
:10109000DF91CF910C9403080E94B906E1CF0E9422
:1010A000B906EDCFCF93DF93CAE0D0E08091030281
:1010B00084FF1CC08091C0019091C101981799F0E4
:1010C00028E0829FC001112443E052E068E0805C88
:1010D0009E4F0E9403088091C00190E001968F709E
:1010E00099278093C001DF91CF9108950E94B9069E
:1010F0008FE99FE00197F1F700C000002197B1F65A
:10110000F2CFCF93DF93EC01A091C101B0E0CD010C
:1011100001968F7099272091C001281779F093E0EC
:10112000AA0FBB1F9A95E1F7A05CBE4F98E0FE01A5
:1011300001900D929A95E1F78093C1010E94B90642
:101140000E94520888E0FE01A4ECB1E001900D92EB
:101150008A95E1F7DF91CF910895CF93C82F882327
:1011600009F46EC08238C1F40E94F20581FD68C0A6
:1011700089E30E94D2040E9498042FEF81EE94E04C
:10118000215080409040E1F700C0000089E30E94B8
:10119000C504CF910C9498048338A1F40E94F20501
:1011A00080FD4EC083E50E94D2040E9498042FEF78
:1011B00081EE94E0215080409040E1F700C00000B3
:1011C00083E5E5CF8438A1F40E94F20582FD38C0A2
:1011D00087E40E94D2040E9498042FEF81EE94E0ED
:1011E000215080409040E1F700C0000087E4CFCF5D
:1011F0008CEF8C0F813A68F4E4E8F0E08191C81735
:10120000C9F020E0EA38F207C9F78C2F0E94D20417
:10121000C0CF80E28C0F883098F4C77021E030E0B6
:1012200001C0220FCA95EAF780910C01822B8093AE
:101230000C01AFCF8C2F0E94C5040E949804E5CF0B
:10124000CF910895CF93C82F0E94AD08C93349F4B8
:101250002FEF87EE93E0215080409040E1F700C0EF
:1012600000008C2FCF910C94FE050F931F93CF930A
:10127000DF93C42FD22FFC0182818823A1F04093F9
:101280008F000E94860490938E0080938D00C7701B
:1012900081E001C0880FCA95EAF7DF91CF911F91D5
:1012A0000F910C94E80510918F00141335C08091B4
:1012B0008D0090918E000E947704883C910560F526
:1012C000C0E2CD0F1D17B9F080E2810F883040F4E5
:1012D000177081E001C0880F1A95EAF70E94DD05BA
:1012E000C83048F481E09D2F977001C0880F9A950F
:1012F000EAF70E94E805802F0E942209C83098F47E
:10130000D77081E001C0880FDA95EAF7DF91CF91BD
:101310001F910F910C94DD05C77081E001C0880F0B
:10132000CA95EAF7F3CFDF91CF911F910F910895FE
:101330007F928F929F92AF92BF92CF92DF92EF9265
:10134000FF920F931F93CF93DF930CE610E0A4E17D
:10135000B1E0712CCC24C394D12CE80189918E0189
:10136000E82FE295EF70F0E091A98F70760101C04F
:10137000EE0C8A95EAF7892F8E2981AB92A97E2DF2
:101380007095972392ABD0EADA95F1F792E7A92E00
:1013900090E0B92E50E040E030E020E0E5016991B6
:1013A0005E01862E82948FE08822912CE40188A928
:1013B00090E06F7002C0959587956A95E2F780FD81
:1013C0006DC0C601042E02C0880F991F0A94E2F76F
:1013D000282B392B4F5F5F4F4F305105F9F681A90C
:1013E000872381AB82A9E82AE2AA8D919C9111976B
:1013F0002817390709F455C011963C932E9381E0C4
:10140000782A1296D0E002371D0709F0A6CF772080
:1014100009F449C081E080938C000E948604909377
:101420008B0080938A0080918A0090918B000E94AB
:1014300077040697E0F18091140190911501909343
:10144000350180933401809116019091170190939A
:101450003701809336018091180190911901909382
:1014600039018093380180911A0190911B0190936A
:101470003B0180933A0180911C0190911D01909352
:101480003D0180933C0180911E0190911F0190933A
:101490003F0180933E0110928C0009C090E080E0F3
:1014A00097CF80E0ADCF80918C008111BCCF872D8C
:1014B000DF91CF911F910F91FF90EF90DF90CF9030
:1014C000BF90AF909F908F907F900895CF9384E0CE
:1014D00090E00E94BD18C82F81E290E00E94BD18E4
:1014E000982F8C2FCF9108950F931F93CF93DF9355
:1014F000C42FD0E0CC0FDD1F2EE1629FC00DD11DA7
:10150000112434EB839FC00DD11D1124CE0186968A
:101510000E94BD18082F10E0102F0027CE018796DB
:101520000E94BD189801282BC901DF91CF911F910E
:101530000F910895462F843038F4763028F46F30B8
:1015400018F4672F0C94740A90E080E00895CF930C
:10155000DF930E949A0AEC018238910589F1B8F56F
:101560008133910509F492C028F58932910509F477
:1015700086C08A9709F491C0C11523E5D20708F007
:10158000ACC0C11532E5D30708F011C1C11540E266
:10159000D40708F090C0C11581E0D80730F5C53AEE
:1015A000D10508F081C0C430D105F8F4C130D105AF
:1015B000E1F040C08533910509F45AC0C997E1F6BE
:1015C00080912001837089F0C0EED0E00EC0833E90
:1015D000910599F170F4803E910501F1823E9105EB
:1015E00059F68091200182FD21C0CE01DF91CF917B
:1015F0000895863E910561F1873E910571F1843E23
:10160000910509F0B9CF8091210181FFEECF809142
:101610002001C7EED0E084FD0DC0E7CF809120010E
:1016200080FDF4C09091210190FFDFCFC3EED0E0A8
:1016300084FFDBCFD0E0C0E0D8CF8091200182FDD5
:10164000E8C09091210190FDBFCF84FFCECFF2CFB3
:101650008091200183FDDDCFC8CF8091200183FDE3
:10166000DBC09091210191FFF0CFC4EED0E0BDCF5F
:101670008091200185FFB9CFC9E2D0E0B6CF80913B
:10168000200185FFB2CFC5E3D0E0AFCF809120012C
:1016900086FFABCFCAE2D0E0A8CF8091200186FFC1
:1016A000A4CFC1E3D0E0A1CFCE01805E910908971D
:1016B00008F49BCFBFCFC11591E5D90708F072C0E0
:1016C000C11520E5D20708F050C0C11530E4D3079A
:1016D00008F4B0CFDF70D06A88CFC11546E5D407D3
:1016E000F0F4C11585E5D80708F077C0C11594E579
:1016F000D90708F06DC0CE018370992721E030E052
:1017000002C0220F331F8A95E2F7C695C69590E274
:10171000C99FE0011124C22BD32BDA6866CFC11513
:101720002AE5D20778F4C11539E5D30708F060C07F
:10173000C11548E5D40708F47DCFDC2FCC27C06F56
:10174000D06A53CFCE0190568115904208F072CFE7
:101750008D2F8F710E94760690E0982F882788271A
:101760009F719C012C2BE90141C0CE01E4E09695CC
:101770008795EA95E1F783702C2F2695269523709F
:1017800040E2249F90011124382B8C2F8370C1E0FC
:10179000D0E002C0CC0FDD1F8A95E2F7C22BD32B1D
:1017A000DC6823CFDC2FCC27C16FD06A1ECFCE01DF
:1017B0008370992721E030E002C0220F331F8A9501
:1017C000E2F7C695C69580E2C89FE0011124E6CFF6
:1017D000DC2FCC27C46FD06A08CF8C2F0E947606EE
:1017E000C82FD0E0DC2FCC27CC27DF71D062FDCE14
:1017F0008C2F8F700E94760634E0D695C7953A9567
:10180000E1F7CF709C2FEC01D069EFCEC9E3D0E0B7
:10181000ECCEC2EED0E0E9CEC6EED0E0E6CEBF928E
:10182000CF92DF92EF92FF920F931F93CF93DF93AC
:101830008C01C090F401D090F501E090F601F09099
:10184000F70180910E0190910F01A0911001B091CC
:101850001101C82AD92AEA2AFB2ACFE1D0E0BC2EFE
:10186000D701C6010C2E04C0B695A795979587950C
:101870000A94D2F780FD0EC0219788F7B12C8B2DEA
:10188000DF91CF911F910F91FF90EF90DF90CF905C
:10189000BF900895B8018C2F0E94A70A019761F3A9
:1018A000EECFCF93DF93EC010E940F0CBE01DF91CE
:1018B000CF910C94A70A0E94510C292F2F7092955A
:1018C0009F7092509E3078F4E92FF0E0E050F74E90
:1018D0000C94B018803F19F020F4883E20F481E089
:1018E0000895843FE1F380E00895883EC0F3813F8E
:1018F000D1F7F5CF822F86958695869508956F92BC
:101900007F928F929F92AF92BF92CF92DF92EF928F
:10191000FF920F931F93CF93DF9384E5C82E80E04F
:10192000D82E98EFE92EF12CE701C45BD1093601DE
:101930001BC0F50185909490692DC8010E94CB18B9
:10194000682DC80101960E94CB1882E0A80EB11C38
:101950000E5F1F4FC017D10761F78EE1680E711C33
:101960006E96CE15DF0529F08E010E511109530137
:10197000E0CF7E0184EBE80EF11C84EBC80ED11C95
:1019800088ECE81683E0F80679F6DF91CF911F9195
:101990000F91FF90EF90DF90CF90BF90AF909F900E
:1019A0008F907F906F900895CF93DF93C6EFD2E032
:1019B00060E0CE010E94CB182196C11584E0D807C3
:1019C000B9F7DF91CF910895CF93C82F6FEF8111B1
:1019D00060E282E290E00E94CB186FEFC11169E0F3
:1019E00083E290E00E94CB186FEFC11166E084E2C1
:1019F00090E0CF910C94CB186CEE7EEF90E080E0FD
:101A00000E94E81860E082E090E00E94CB1860E05D
:101A100083E090E00E94CB1810920E0110920F010B
:101A2000109210011092110160E084E090E00E9499
:101A3000CB1860E081E290E00E94CB1860E085E086
:101A400090E00E94CB1860E086E090E00E94CB1806
:101A50006FEF87E090E00E94CB1840E050E0BA01C1
:101A600088E090E00E94DC1860E08DE090E00E9449
:101A7000CB1840E050E0BA0188E190E00E94DC1809
:101A800060E087E190E00E94CB1840E050E0BA01AE
:101A90008CE190E00E94DC1860E080E290E00E941F
:101AA000CB1840E050E0BA018FE090E00E94DC18D3
:101AB00040E050E0BA0183E190E00C94DC18109211
:101AC0000C01E4E8F0E086E0DF011D928A95E9F779
:101AD00010920B0110920A010C9498045F926F927D
:101AE0007F928F929F92AF92BF92CF92DF92EF92AE
:101AF000FF920F931F93CF93DF9300D000D00F92EC
:101B0000CDB7DEB77C01FC0183819481892B31F054
:101B10008081918189238F3F09F00AC50F900F9032
:101B20000F900F900F90DF91CF911F910F91FF9029
:101B3000EF90DF90CF90BF90AF909F908F907F906D
:101B40006F905F9008950E940F0C182F682F898165
:101B50009A810E94130569817A81812F0E949A0AD5
:101B60008C01F7018281882309F4D7C4980122519E
:101B70003F452031310508F0A7C48FEF93E00E9464
:101B8000BD18025156EFA52E52E0B52E882369F1FB
:101B900080910901877011F2F7018281882309F48D
:101BA000BDCF82E00F900F900F900F900F90DF91BC
:101BB000CF911F910F91FF90EF90DF90CF90BF904A
:101BC000AF909F908F907F906F905F900C948C055A
:101BD000A114F4E0BF06E1F2C5010E94BD18811115
:101BE00001C001502FEFA21AB20A0111F1CF1C82DD
:101BF0001B82662463944AE0542E85010F5F1F4FB9
:101C0000C5010E94BD1889831A82882309F4C0CFB8
:101C10009FEF980F933008F58A83698232E0A30E14
:101C2000B11CC8010E94BD188B83882309F4B0CF72
:101C30008E010F5F1F4FF80120812223F1F2213026
:101C400009F043C091818281913049F40E5F1F4FAA
:101C50000E9422090F5F1F4FEECF5801E9CF92304B
:101C600029F40E5F1F4F0E94AD08F4CF933029F482
:101C70000E5F1F4F0E94FE05EDCF943019F00F5FED
:101C80001F4FE8CF0E5F1F4F30E020E0B8016F5FBD
:101C90007F4FF80141818053990B8A30910550F0B4
:101CA00021503109B8F28FE99FE00197F1F700C0A8
:101CB0000000F6CF529EF001539EF00D11249C01BE
:101CC0002E0F3F1F842F8B01E1CFE22FF0E0EC5B62
:101CD000FC4F7490822F86958695869590E0FC0146
:101CE000EC5CFC4F84902770912C022E02C09594DE
:101CF00087940A94E2F7E1E08E229924FC01EC5DDE
:101D0000FC4FC490D12C02C0D594C7942A95E2F719
:101D1000F1E0CF22DD248114910419F081EE0E94BC
:101D2000AD08C114D10419F086EE0E94AD08872DCC
:101D30000E942209CD2819F086EE0E94FE0589280E
:101D400009F488CF81EE96CF81E00E94A4050E941D
:101D50004D051ECF81E00E946905F9CF82E0F5CFE5
:101D6000053F2CE5120709F465C008F45DC0063F85
:101D70009CE5190709F464C0882309F4EAC31092AA
:101D80008F000230ECE51E0708F442C10631FCE585
:101D90001F0738F098012A5F3C452930310508F0CB
:101DA00037C10E94660A909321018093200100317F
:101DB0002CE5120709F4FBC008F085C008308CE55B
:101DC000180709F4E6C008F057C00430ECE51E0718
:101DD00009F4D3C008F040C002302CE5120709F422
:101DE000C6C080912001826003301C4509F4C2C046
:101DF000609120011091210184E090E00E94CB18B5
:101E0000612F81E290E00E94CB180E945F0DC0CE4E
:101E100007E225EE45EE68ED7CE57BC306E221EEA8
:101E200040EE63EF7CE575C307E225EE44EE64EF18
:101E30007CE56FC306E221EE42EE65EF7CE569C307
:101E400007E225EE46EE66EF7CE563C308E221E09B
:101E500045EE69ED7CE55DC306308CE5180709F4B5
:101E600094C080912001886007301C4508F482C02E
:101E70008091200180627EC0809120018D7F0C3096
:101E8000ECE51E0709F476C070F4809120018C60A7
:101E90000A302CE5120709F46DC008F47EC0809169
:101EA00020018E7F67C00E308CE5180709F47BC0D7
:101EB000809120018B7F0F301C4508F45BC080911E
:101EC00020018F7E57C00B3FECE51E0709F459C077
:101ED00030F503312CE5120709F471C078F40131B3
:101EE0008CE5180709F467C002311C4509F080CF62
:101EF0000E945F0D809120018F773CC00531ECE599
:101F00001E0709F464C008F478C080912101816043
:101F10000A3F1C4509F06CCF8093210169CF0F3F28
:101F20003CE5130709F44FC088F4809121018D7FAF
:101F30000D3F9CE5190781F3809121018E7F0E3FB3
:101F40001C4550F3809121018360E6CF0130FDE50F
:101F50001F0709F45BC008F446C060E002301D456D
:101F600009F046CF8EE090E00E94CB1841CF8091DF
:101F700020018160809320013BCF8091200184600B
:101F8000F9CF809121018260C7CF809120018061CB
:101F9000F1CF809120018064EDCF0E945F0D809190
:101FA00020018068E7CF80912001877FE3CF809177
:101FB00020018F7DDFCF809120018F7BDBCF80914F
:101FC0002001837FD7CF809121018C7FA5CF809185
:101FD000200182FB992790F921E0922790FB82F95A
:101FE00090FB83F9C7CF80912101982F9095917034
:101FF0008E7F892B90FB81F98FCF0E945F0D90918E
:102000002001892F97FB87F98058B4CF61E0AACFD0
:1020100006319CE5190709F0A7C280910C018A7A64
:1020200091E009F490E090939000811106C089E25C
:102030000E94D2040E949804ABCD85E3F9CF85E3DA
:1020400090C20E945F0DEFEFF4E32CE0E150F0400E
:102050002040E1F700C000000E94640499CD0E9476
:10206000FC0C96CDC8010E94EB04D82E94C2212FFF
:102070002F70B22E107F19F0B29490EFB922AA20DF
:10208000C9F0BB2069F080E2800F883010F0811029
:102090000BC080910C01B82AB0920C010E949804E8
:1020A000802F0E94AD0818C080910B01B82AB09211
:1020B0000B01F4CF802F0E94FE05BB2069F0B09485
:1020C000005E083010F081103AC080910C01B822F7
:1020D000B0920C010E949804EC2DE850FF0B34974D
:1020E00010F40E94F205DD2009F418CD8091090159
:1020F00080FD14CDF70112828595859585950E9406
:10210000A405C7010E946E0D8091090185958595F2
:1021100085950F900F900F900F900F90DF91CF91BA
:102120001F910F91FF90EF90DF90CF90BF90AF90F5
:102130009F908F907F906F905F900C946905809135
:102140000B01B822B0920B01C5CF312F3F70932EF7
:10215000107F103219F0929480EF9822882071F04D
:1021600081E0881661F1AA20B9F1BB2071F1F70175
:10217000858180FF95CF8F70858327C0AA2091F03D
:1021800090910D01892D892BB11003C00E94E805A3
:10219000A3CFE1E0BE12FACF981709F49DCF809348
:1021A0000D019ACFB11006C00E949204892D0E94A1
:1021B000DD0592CFF1E0BF1609F48ECFF5CFAA204E
:1021C00031F025E02B1508F487CF892DDFCF34E0DF
:1021D0003B1508F481CFEACFBB2041F3F9E38F121E
:1021E0006CC12FEF37EE83E0215030408040E1F7A3
:1021F00000C0000062C1812F837009F066C0A11089
:102200006BCF802F829586958770880F880F602FFF
:102210006F70862E912CB12CA12C082E04C0880C36
:10222000991CAA1CBB1C0A94D2F740E050E0BA01EA
:1022300004FF0FC04FE050E060E070E004C0440FC6
:10224000551F661F771F8A95D2F740955095609568
:102250007095812F869586958370823019F1D8F418
:1022600000910E0110910F01209110013091110188
:10227000813069F0482959296A297B29CB01BA01A3
:1022800060237123822393230E94C50525CF802AD2
:10229000912AA22AB32ACB01BA01682979298A296D
:1022A0009B29F2CF482959296A297B2900910E01DF
:1022B00010910F012091100130911101CB01BA0151
:1022C0006027712782279327DFCF8695AA2011F0F8
:1022D000812F8170882309F4FFCE802F8295869507
:1022E0008770880F880F602F6F70862E912CB12C0D
:1022F000A12C082E04C0880C991CAA1CBB1C0A9493
:10230000D2F740E050E0BA0104FF0FC04FE050E0C8
:1023100060E070E004C0440F551F661F771F8A9568
:10232000D2F74095509560957095812F869586954A
:102330008370823019F1D8F40091F4011091F50105
:102340002091F6013091F701813069F0482959292F
:102350006A297B29CB01BA0160237123822393234D
:102360000E943F05B9CE802A912AA22AB32ACB0126
:10237000BA01682979298A299B29F2CF4829592944
:102380006A297B290091F4011091F5012091F60151
:102390003091F701CB01BA0160277127822793277B
:1023A000DFCF1F70AA2029F0812F0E94A405802F63
:1023B000EDCE802F0E94DD05812F0E9469058CCE15
:1023C000802F92EF891609F450C0981578F0E0EF4D
:1023D0008E1619F1F1EF8F1609F43FC0AA2009F407
:1023E00067C0B1105DCE812F8F713CC023EF821684
:1023F00009F440C034EF8312F1CFAA2009F44DC094
:102400001F71812F0E94A405E8E01E9FC0011124C6
:10241000836080930901812F25C0AA20C9F084E040
:102420008B1508F459CE1F7161E070E080E090E0F8
:1024300004C0660F771F881F991F1A95D2F7009165
:10244000F4011091F5012091F6013091F701A4CF2C
:1024500095E09B1508F440CEE6CF812F8F71AA201E
:1024600009F4ABCF0E94A40537CE812F8F71AA202B
:10247000C9F3A3CF60E070E0CB01AA2009F470CFCC
:102480001F7161E070E080E090E004C0660F771F8C
:10249000881F991F1A95D2F763CF81E00E948C059F
:1024A000F1E0FB1508F018CE82E00E948C0514CEF6
:1024B000BB2039F0893309F494CE802F0E94FE05A9
:1024C0000BCE812F8F7179CF0031FFE51F0709F403
:1024D0003BCC01312FE5120709F440CC033F2CE53A
:1024E000120709F49BCC08F03BCC083D9CE519078A
:1024F00009F48ECC093DECE51E0709F4A7CC073D95
:10250000FCE51F0709F038CC06E221EE41EE67ED4D
:102510007CE5C7010E9435093BCB00313FE513073D
:1025200009F418CC01319FE51907C1F682E013CCFC
:1025300085E0DE01119601900D928A95E1F7F70191
:10254000228189819A812111FECA0E94EB04182FF1
:1025500002CB06311C4589F48091900081116FCD2A
:1025600089E20E94C50466CD01152CE5120709F425
:1025700068CD0E3D1C4509F472CDF7010081118133
:10258000882309F46FCDC8010E940F0CD82E682F44
:10259000C8010E941305B8018D2D0E94A70A8C0165
:1025A000882EF701B580B2943FE0B322A280A1103B
:1025B00010920B0180910901877099F0AA2089F08F
:1025C000812F807F803421F080E2800F883048F0B6
:1025D00082E00E948C05809109018770DD24D394EC
:1025E0008111D12CC12EC2942FE0C222FBE0FC1538
:1025F00008F472CDEC2DF0E0E25FF64E0C94B018CA
:102600001F93CF93DF9380919A00807FA9F48091EC
:102610009700882389F08091CC00D0919B00609135
:10262000950070919600A0919800B0919900C62FE6
:10263000C72316E0D81304C0DF91CF911F910895EE
:1026400090E0109711F0CF3F19F401968770F2CF08
:10265000189F9001199F300D1124F901E456FF4F86
:1026600041814713F2CF40814613EFCF42814111A0
:10267000ECCF438154814A1B5B0B483C510528F742
:1026800080919A008F70806180939A00F901EF55D4
:10269000FF4F80818F708061808385E990E00E9488
:1026A0006E0DDF91CF911F910C94D305AF92BF9225
:1026B000CF92DF92EF92FF920F931F93CF93DF930E
:1026C000CDB7DEB761970FB6F894DEBF0FBECDBFB2
:1026D0008C0185E0F801DE011D9601900D928A952E
:1026E000E1F7F80180819181E28025E9A22E20E0C6
:1026F000B22E60919800709199006115710509F4EE
:102700003EC13091950040919600232F24232F3F06
:1027100009F435C1C380D480F0909700F601E61B20
:10272000F70BFF2009F4FBC020919A00522F507F35
:10273000E83CF10508F0BBC0511178C0FE2C4913EC
:1027400021C038131FC0E1101DC02F7020612093DD
:102750009A00C5010E946E0D80919A00F801858350
:102760008F2D61960FB6F894DEBF0FBECDBFDF91FF
:10277000CF911F910F91FF90EF90DF90CF90BF907E
:10278000AF900895CD2829F0282F29232F3F09F055
:1027900014C120E0F22FF170DF2E20FF3DC0209108
:1027A000CC0040919B0056E0241315C08D879E8776
:1027B0008D859E850E94510C292F22952F702230E5
:1027C000F8F0243020F59F70F9F0F8019581907FA2
:1027D000D9F4D12C1FC030E0529FF001539FF00D6F
:1027E0001124E456FF4F6181961306C06081861361
:1027F00003C06281E61210C02F5F3F4F2770D4CF15
:102800009F7011F0882329F3805E883010F3C8018F
:102810000E946E0DFD2CA4CFEE2009F4A1CF809173
:102820009A00816080939A00F12C9ACF491312C0CC
:10283000381310C0E1100EC0F8012583C8010E94B2
:102840006E0D86E0F801A5E9B0E001900D928A9541
:10285000E1F786CF8D879E878D859E850E945B0CD4
:10286000882309F1EE20F9F080919A00803270F00F
:10287000209195003091960038872F831986DB864A
:10288000CA868C87CE0107960E946E0D86E0F801FD
:10289000A5E9B0E001900D928A95E1F70E9400133E
:1028A000FF24F3945DCFC8010E946E0DF9CF511142
:1028B0000AC085E990E00E946E0D86E0F501119254
:1028C0008A95E9F7B1CF49130FC038130DC0E11055
:1028D0000BC0F8012583C8010E946E0D86E0F5014A
:1028E00011928A95E9F73CCF8D879E878D859E85CD
:1028F0000E945B0C8823B9F2EE20A9F280919A0025
:10290000803220F220919500309196003A832983FD
:102910001B82DD82CC828E83CE010196B5CFE83C4E
:10292000F105E0F6FE2CEE2009F4BDCF491316C0E8
:10293000381314C080919A0080FD83CF982F907F28
:1029400009F47FCFF8018583903F09F477CF982F62
:10295000907F905F8F70892B858370CF8D879E8746
:102960008D859E850E945B0C811190CF80919A008D
:10297000816080939A00C8010E946E0DF1CEEE2016
:1029800009F491CF8D879E878D859E850E945B0C73
:10299000F82E882309F487CF86E0F801A5E9B0E096
:1029A00001900D928A95E1F78091950090919600A3
:1029B0000E94510C0E940013D3CE21E02E25EACEB6
:1029C0001F93CF93DF93CDB7DEB767970FB6F89419
:1029D000DEBF0FBECDBF4B8B5C8B6D8B7E8B8F8B29
:1029E0001A8A198A85E0FE017396DE011D96019010
:1029F0000D928A95E1F786E0FE013D96DE0117967D
:102A000001900D928A95E1F7CE0107960E94561328
:102A1000882389F016E08091CC0090919B00891367
:102A200049C067960FB6F894DEBF0FBECDBFDF91E9
:102A3000CF911F91089586E0FE013796DE01119631
:102A400001900D928A95E1F78A859B85892B11F378
:102A50008F81988589238F3FE9F220919B0030E098
:102A6000C9010196877099274091CC004817190633
:102A700071F40E945F0D10929B001092CC0086E0D2
:102A8000E5E9F0E0DF011D928A95E9F7C3CF96E012
:102A9000929FD001939FB00D1124A456BF4FFE0109
:102AA000319601900D929A95E1F780939B000E94D8
:102AB000D305B0CF819FC001112484569F4F0E943F
:102AC0005613882309F4ADCF8091CC0090E0019695
:102AD000877099278093CC009ECFCDB7DEB72A9719
:102AE0000FB6F894DEBF0FBECDBF0E9486047C01F6
:102AF00084B7806884BF84B7806884BF80E690E034
:102B0000909313018093120185B7886085BF8BB7BE
:102B100080688BBF8BE4809304028093390280939A
:102B200010028AE5809303028093380280930F029B
:102B30008B9A80E0815009F036C18B987894FFEF32
:102B400020E732E0F15020403040E1F700C00000C3
:102B50008BE083BF8AEF8CBF82E089BFACE6B0E038
:102B600041E050E08D91E82FE295EF70F0E061A92F
:102B70008F709A0101C0220F8A95EAF7922F9095E3
:102B8000962391AB82A9822B82AB80E0A237B80753
:102B900049F7A2E7B0E021E830E041E050E08D9154
:102BA000E82FE295EF70F0E011A98F70BA0101C033
:102BB000660F8A95EAF7962F9095912391AB82A99B
:102BC000862B82AB2A173B0751F7E4E1F1E080E264
:102BD00091E0A4E3B1E0119211921D921D928E1723
:102BE0009F07C9F70E949809EFE3FCE93197F1F7D5
:102BF00000C000000E9498098091340180FF0BC042
:102C000080E00E94E40C6FEF7FEF90E080E00E9494
:102C1000E8180E94640490E080E00E94C5188C3E91
:102C20009E4F11F00E94FC0C82E290E00E94BD18C1
:102C3000803209F057C283E290E00E94BD188930CB
:102C400009F050C284E290E00E94BD18863009F07D
:102C500049C290E080E00E94C5188C3E9E4F11F062
:102C60000E94FC0C82E090E00E94BD18809323013A
:102C70000E94660A909321018093200183E090E0F6
:102C80000E94BD18682F70E090E080E00E94C505AA
:102C900010E0BB24BA9450E1252E64EB362E7EE181
:102CA000472EE9E05E2EF0E4CF2EF1E0DF2EACE01F
:102CB000AA2E80911E02882309F47DC010921E0264
:102CC0000E9486047C010E94B9068091CC01882371
:102CD00009F44CC08091030284FF48C00E94980907
:102CE000A4E2B1E0E4E3F1E010E000E0602F8191C4
:102CF00091912D913D912817390709F478C0282723
:102D0000392770E088248394912CA9014821592106
:102D1000452B09F466C079836A839C0128213921F7
:102D200091E0232B09F490E09B830E94860481604C
:102D3000782F9D838C8349815A816B818D810E947C
:102D4000E014000F111FF801EC5DFE4F80819181AE
:102D500088269926918280820E94F2059091220114
:102D6000891721F00E94F205809322010E945208E7
:102D70000E94B9068091CC01882309F456C0809145
:102D8000380284FF52C08091C201803209F04DC0E8
:102D9000E091D401E150E33108F08EC0F0E0E65E4E
:102DA000F64E0C94B018A895EFE9FFE03197F1F7D3
:102DB00000C00000BFCEC7010E947704069718F438
:102DC000112309F480CF0E949809E4E3F1E0819196
:102DD0009191892B09F06DC1CE16DF06C1F711E084
:102DE00068CF7F5F880C991C7F3009F08ECF0F5F12
:102DF0001F4F0630110509F079CFBE82BF821886B9
:102E00000E9486048160782F9A8789874E815F812E
:102E100068858A850E94E0149FCF1092D501509258
:102E2000D6010E942C081092C20110E042CF80917E
:102E3000D501823009F463C18330C1F08130E1F5FE
:102E40002FB7F89460913001709131018091320177
:102E5000909133012FBF0E94B6186093D6017093F2
:102E6000D7018093D8019093D901DBCFA4EDB1E0D5
:102E7000E4E3F1E080819181329612969C9312975F
:102E800013968C931397129631E0E034F30791F781
:102E9000C8CF8091D501823079F46091D6017091CC
:102EA000D7018091D8019091D9010E94B61885E28E
:102EB00090E00E94CB18B5CFB092D401B2CF409130
:102EC000D7016091D6018091D5010E94740A98279C
:102ED000892798279093D9018093D801A2CF809019
:102EE000D8019090D9019824892498248091D50103
:102EF0000091D601049D80011124839D000D111DB8
:102F000011248091D70190E0880F991F080F191F95
:102F1000692DC80186960E94CB18682DC801879636
:102F2000C8CF0E947F0C7DCF2092D5017ACF81E05F
:102F30008093D5019AE09093D60173CF0091D5018B
:102F40001091D60110270127102734ED632E31E0B0
:102F5000732E8090D701912CF401EC52FE4F4F015B
:102F6000C8018A509D4F8614970409F45ACF0A303D
:102F7000F1E01F0750F40E94BD18F30184830F5F36
:102F80001F4FFFEF6F1A7F0AEBCFF3011482F7CFC9
:102F90000091D5011091D60110270127102724EDAB
:102FA000622E21E0722E8090D701800E912E911C0E
:102FB000C8018A509D4F8016910609F432CF0A301D
:102FC00021E0120720F4F30164810E94CB18FFEF87
:102FD0006F1A7F0A0F5F1F4FEBCF0E94D40C21CFD7
:102FE00024E02093D5011DCF0091D5011091D60189
:102FF00010270127102794ED692E91E0792E8090FB
:10300000D701912CC4018C529E4F4C01C801869669
:103010008614970409F405CF003DE2E01E0750F442
:103020000E94BD18F30184830F5F1F4FFFEF6F1ADB
:103030007F0AECCFF3011482F7CF0091D5011091F4
:10304000D60110270127102784ED682E81E0782E05
:103050008090D701800E912E911CC801869608158C
:10306000190509F4DECE003D22E0120720F4F30139
:1030700064810E94CB18FFEF6F1A7F0A0F5F1F4F0A
:10308000ECCF80E00E94E40C6FEF7FEF90E080E0F7
:103090000E94E818C6CE0E942C082FEF31EE84E083
:1030A000215030408040E1F700C000000E946404DD
:1030B000B8CEF89491B3939A892F8C6081BB82B378
:1030C0008A2582BBEFE7F8E321E0E150F0402040A1
:1030D000E1F700C0000082B38A2582BB91BB9398C0
:1030E00078947DCE60E085E290E00E94CB180E944B
:1030F0007F0C0E94D40C81E00E94E40CAACD85E2F2
:1031000090E00E94BD181092D6011092D701109243
:10311000D8018093D90185CE78941F921FB61F9253
:1031200011248F939F93AF93BF938091300190911F
:103130003101A0913201B09133010196A11DB11D61
:103140008093300190933101A0933201B093330109
:10315000BF91AF919F918F911F901FBE1F901895A7
:10316000EE0FFF1F0590F491E02D09946927962733
:1031700069277827872778270895E199FECF9FBB95
:103180008EBBE09A99278DB30895A8E1B0E042E0A4
:1031900050E00C94F018262FE199FECF9FBB8EBB18
:1031A000E09A01970DB2021631F02DBB0FB6F894DC
:1031B000E29AE19A0FBE08950396272F0E94CC1839
:1031C0000E94CB18252F0E94CC18242F0C94CC18C9
:1031D0000196272F0E94CC180C94CB18DC01CB0150
:1031E000FC01E199FECF06C0FFBBEEBBE09A319631
:1031F0000DB20D9241505040B8F70895F894FFCFAA
:103200006A0C6A0C730C730C750C730C730C730CD6
:103210006A0C6A0C7A0C730C730C7A0C371037102A
:10322000A510A5106C106C106C106C10FB10D11157
:10323000E011E0110D17171749175F176F17911756
:103240005C175C175C1741184B18941797179E175B
:0A325000C817ED17F017F4171D184A
:10325A006104810860045E045F04FF5A95949392A6
:10326A009190606162636401000506343332313043
:02327A0007004B
:00000001FF
