:100000000C9452010C9496010C94B1010C9496013D
:100010000C9496010C9496010C9496010C94960104
:100020000C9496010C9496010C94F7140C94960180
:100030000C9496010C9496010C9496010C949601E4
:100040000C9496010C9496010C9496010C949601D4
:100050000C94960100003A003B003C003D003E003D
:100060003F004000410042004300440045000000C2
:100070004C0029001E001F00200021002200230048
:1000800024002500260027002D002E0035004B00FF
:100090002B0014001A000800150017001C0018009F
:1000A0000C00120013002F00300031004E00390008
:1000B00004001600070009000A000B000D000E00E6
:1000C0000F0033003400280000004A00E1001D004A
:1000D0001B00060019000500050011001000360085
:1000E00037003800E50052004D00E000E300E20078
:1000F00000002C00015100002A000000E600000072
:10010000E400500051004F00000001000100010018
:1001100001000100010001000100010001000100D7
:1001200001000000010001000100010001000100C8
:1001300001000100010001000100010001000100B7
:1001400001000100010001000100A900005C0100A4
:100150000100010001000100010001000100010097
:100160000100010001000100AA00B300A500010088
:100170000100010001000100010001000000010078
:100180000100010001000100010001000100010067
:1001900001000100010001000100A90001000100AF
:1001A000010001000000A8000100000001000000A3
:1001B0000100000001000100AA00010009023B004B
:1001C000020100A0FA090400000103010100092155
:1001D0000101000122400007058103080001090414
:1001E0000100010300000009210101000122320089
:1001F00007058303080001120110010000000865D3
:10020000726F620100010203010403300000000E5E
:100210000342006F006E0073006100690000000C73
:10022000035200650074006E0065000000040309BD
:100230000405010980A101850319012AB7001501F0
:1002400026B700950175108100C0050C0901A101B8
:10025000850419012AA002150126A0029501751036
:100260008100C005010906A101050719E029E7156C
:100270000025019508750181029501750881030526
:1002800007190029FF150026FF0095067508810053
:100290000508190129059505750191029501750358
:1002A0009103C00011241FBECFE5D8E0DEBFCDBF53
:1002B00004B603FE24C080918B0290918C02A09121
:1002C0008D02B0918E028730904BA740B04BB9F4AD
:1002D00010928B0210928C0210928D0210928E025C
:1002E00014BE84B7877F84BF0FB6F894A89581B5F4
:1002F000886181BD11BC0FBEE0E0F8E3099510E014
:10030000A0E6B0E0E8E7F1E302C005900D92A63E5A
:10031000B107D9F722E0A6EEB0E001C01D92AB38DC
:10032000B207E1F70E9466150C949C180C9400002B
:10033000A82FB92F80E090E041E050EA609530E0CE
:1003400009C02D9182279795879510F084279527CE
:10035000305EC8F36F5FA8F30895EADF8D939D9335
:100360000895CF93CFB7CF93DF93C395839BE9F7DE
:10037000839B10C0839B0EC0839B0CC0839B0AC0D1
:10038000839B08C0839B06C0C0916202C395C09343
:1003900062028EC06F93C0916102DD27C759DD4FA5
:1003A0002F9365E5839B03C02F916F91E1CF0F934E
:1003B0001F934F9320E040E15F9300B30C7003FB69
:1003C00027F93F9350E03BE039C01C7040642F7721
:1003D000012F5F5F1EC0406810B31C702F77525012
:1003E0001FC0406400B32F770C70D1F15F5F00C075
:1003F00023C0406210B32F771C7091F15F5F00C083
:1004000025C00C701027515012F45D5F0000115090
:1004100027952C3F10B3C8F61C7001270150279573
:100420002C3FC8F64227499300B30C7010274F7336
:10043000115027952C3FA8F64695469510B31C7091
:1004400079F00127015027952C3F98F66B5A60F3FD
:10045000315000B3B0F600C010E81ABF00271CC02E
:100460003B503195C31BD04010E81ABF0881033CB4
:1004700021F10B3411F120915E021981110F121339
:10048000EDCF4A81441F093679F10D3211F0013E5A
:1004900029F74F7009F0042F009367023F915F9195
:1004A0004F911F910F912F916F91CAB7C7FD5DCFEB
:1004B000DF91CF91CFBFCF91189520916702222372
:1004C00069F310916502112309F049C034300AF430
:1004D00048C03093650220936002109161023BE0B6
:1004E000311B309361023DC0009165020130BCF5C3
:1004F0000AE54F7049F430916D0034FD33C000932C
:100500006D00CBE3D2E032C0433059F0443091F07B
:100510003091460234FD26C000934602C7E4D2E083
:1005200025C030917F0234FD1DC000937F02C0E8DA
:10053000D2E01CC03091520234FD14C0009352022C
:10054000C3E5D2E013C0052710E000C0000002BBE5
:100550001AC0052710E0221F1DC010E021C04AE587
:1005600002C032ED432FC4E1D0E032E011B31C6091
:10057000939A02B311BB5CE020E865E320FF0527F6
:1005800002BB279517951C3FF0F66695B8F7B1F7B3
:1005900020FF052702BB279517951C3FD0F627950E
:1005A000179517FF052700001C3F02BBB0F62991E5
:1005B0003A9519F7037F10916602110FC651D0408A
:1005C00002BB11F010935E0210E81ABF086011B36D
:1005D000137F402F437F54E05A95F1F702BB11BBC4
:1005E00042BB5CCF81E0089581E008950C94F40251
:1005F00008950C94F8021F93CF93DF9300D000D09E
:100600000F92CDB7DEB749835A836B8330910001D7
:1006100089819A8131111DC06623B9F02223A9F086
:100620000E947D12182F682F89819A810E942912B9
:1006300069817A81812F0F900F900F900F900F900A
:10064000DF91CF911F910C94AD030E945512182F8A
:10065000EFCF0E947D1269817A81EDCFFC01262FB8
:10066000408151816281738184810C94FB02CF931C
:10067000DF93EC0160E00E942E03BE01DF91CF9179
:100680000C94F9020E9430150E94C713811102C018
:100690000E9464140C94B0050C94B30508950C9456
:1006A0004E0381E008950C945103CF93C82F0E940C
:1006B0004F038C2FCF910C94530308950E94900DFB
:1006C0000E945D032FEF84E39CE021508040904026
:1006D000E1F700C000000C941B150F931F93CF93FC
:1006E000DF93EC0161E00E942E038C01BE010E94A9
:1006F000F602882329F1BE01C8010E94570788230A
:10070000F9F0BE01C8010E94A9078823C9F0BE0103
:10071000C8010E94CC08882399F08A81882339F087
:1007200001158CE5180751F00E3D1C4579F0CE01FE
:10073000DF91CF911F910F910C94F2020E945E0302
:1007400080E0DF91CF911F910F9108950E94641472
:10075000F7CF90E080E008950895972F70E02FE0A4
:10076000929F600D711D1124FB019AE5899FE00D98
:10077000F11D1124EE0FFF1FEC5AFF4F859194914C
:100780000895FC01EE0FFF1FE454FE4F85919491F4
:100790000895CF93DF930E94AD030E94D504EC012E
:1007A000811520E5920708F041C0811530E49307D8
:1007B00008F0B4C0803E910518F5803C910508F022
:1007C0009DC0883A910570F4853A910508F08EC075
:1007D00081309105F9F00097E9F00497D8F4D0E062
:1007E000C0E018C08F3B9105D0F7C85AD0E0CC0FBD
:1007F000DD1FC259DF4F0990D881C02DD4640AC0D3
:100800008115904258F4C11581E0D80718F4C83E0C
:10081000D10528F7CE01DF91CF910895C11590E35E
:10082000D90708F071C0CE019F706AC0811525E517
:10083000920758F5811534E5930708F09EC081159D
:1008400042E5940750F4C11581E5D80708F469C062
:10085000DC2FCC27C16FD06ADDCF982F9695969567
:100860009E0123703327C115D34508F077C0C1E03E
:10087000D0E002C0CC0FDD1F2A95E2F720E2929F64
:10088000C0011124C82BD92B67C0C11589E5D80731
:10089000A8F4C11598E5D90708F074C0C11526E57C
:1008A000D20708F09CCF8C2F0E946C05C82FD0E097
:1008B000DC2FCC27CC27DF71D062ACCFC1153AE555
:1008C000D30708F464C0CE0190568115904208F019
:1008D00086CF8D2F8F710E946C0590E0982F88270E
:1008E00088279F719C012C2BE901E6CFC55AD0E0E7
:1008F000C456DF4FC881D0E0D0648CCF805C9109B2
:100900000E94C103EC0186CFCE019927D3FF03C01B
:10091000EC01D86C7FCFEC01D06C7CCFDF70D06A5B
:1009200079CFCE01E4E096958795EA95E1F783705B
:100930002C2F26952695237090E2299F9001112453
:10094000382B8C2F8370C1E0D0E002C0CC0FDD1FAC
:100950008A95E2F7C22BD32BDC685CCFC1E0D0E0F4
:1009600002C0CC0FDD1F2A95E2F730E2939FC00151
:100970001124C82BD92BDA684DCFD82FCC27C46FC0
:10098000D06A48CFDC2FCC27C06FD06A43CF8C2FE2
:100990008F700E946C0534E0D695C7953A95E1F7C3
:1009A000CF709C2FEC01D06935CF82389105B1F121
:1009B000B0F48133910509F475C048F4893291058A
:1009C00009F469C08A32910509F473C0089585332A
:1009D000910509F459C08933910501F10895833EC9
:1009E0009105A9F138F4803E9105F9F0823E910518
:1009F00049F10895863E9105A9F1873E9105C9F117
:100A0000843E910519F520913A0221FF1FC0809183
:100A1000390284FD14C087EE90E0089520913902D8
:100A20002370A1F080EE90E008952091390220FD1E
:100A300047C030913A0230FF09C024FF44C090E023
:100A400080E004C02091390222FDF7CF0895209163
:100A5000390222FD3BC030913A0230FDE3CF24FF42
:100A6000F5CFEDCF2091390223FFF0CF24FDE7CF62
:100A7000D2CF2091390223FD2CC030913A0231FFB0
:100A8000EECF84EE90E008952091390225FFDECF6D
:100A900089E290E008952091390225FFD7CF85E3C0
:100AA00090E008952091390226FFD0CF8AE290E0AD
:100AB00008952091390226FFC9CF81E390E008957F
:100AC00089E390E0089583EE90E0089582EE90E04F
:100AD000089586EE90E008959091390292FF06C045
:100AE000282F28712830F9F4877F846093FF06C08F
:100AF000282F28712831F1F4877E846120913A02F1
:100B000020FF06C0382F38713830D9F4877F8160D4
:100B100021FF06C0282F28712831D1F4877E8161FA
:100B200094FD877E0895282F24712430F9F68B7F59
:100B30008860DCCF282F2471243101F78B7E8861F7
:100B4000DDCF382F3171313019F78E7F8860E0CFDB
:100B5000282F2171213121F78E7E8861E1CF089500
:100B60000C94AF0508950C94B205E82FF0E0EE0F59
:100B7000FF1FE75DFD4F808191810895089580EA10
:100B80008A95F1F70895AEEAB0E061E070E08D91EA
:100B9000E82FE295EF70F0E041A98F709B0101C052
:100BA000220F8A95EAF7922F9095942391AB82A910
:100BB000822B82AB80E0A43BB80749F7AFE9B0E0F5
:100BC00061E070E08D91E82FE295EF70F0E041A9CF
:100BD0008F709B0101C0220F8A95EAF7922F9095A2
:100BE000942391AB82A9822B82AB80E0AE3AB80706
:100BF00049F7EDE1F2E0A9E2B2E089E292E0119278
:100C000011921D921D928E179F07C9F786E00E94D0
:100C100092060C9442038F929F92AF92BF92CF9212
:100C2000DF92EF92FF920F931F93CF93DF938EEAA1
:100C3000E82E80E0F82E0DE112E0912CAA24A39476
:100C4000B12CF70181917F01C82FC295CF70D0E000
:100C500099A98F70650101C0CC0C8A95EAF7892F9C
:100C60008C2989AB8AA98C2C809488218AAB0E941C
:100C7000BF05EFE9F0E050E040E030E020E06191B6
:100C8000A62FA295AF70B0E0D0968C9190E06F70D7
:100C900002C0959587956A95E2F780FD3EC0C50133
:100CA000042E02C0880F991F0A94E2F7282B392BD3
:100CB0004F5F5F4F4F30510511F789A9882289AAEC
:100CC0008AA9C82ACAAAF801808191812817390700
:100CD00039F13183208381E0982A0E5F1F4FF4EBB6
:100CE000EF16F0E0FF0609F0ACCF292D46E069E2EF
:100CF00072E08DE192E00E9493060E944C03892DE0
:100D0000DF91CF911F910F91FF90EF90DF90CF90E7
:100D1000BF90AF909F908F90089590E080E0C6CFF5
:100D200080E0DACF0895FF920F931F93CF93DF9364
:100D3000F82E092F162FD72FC42F222349F081E038
:100D40008093E8000E94DC149093E7008093E60013
:100D50008091E8008823A1F08091E6009091E7005F
:100D60000E94E814069760F0EF2DF02FA12FBD2F01
:100D700090E080E0D0E08C179D0744F01092E800EE
:100D8000DF91CF911F910F91FF90089521913191A3
:100D90002D933D930196EFCFAF92BF92CF92DF920A
:100DA000EF92FF920F931F93CF93DF937C015B0130
:100DB000C42FD22FFC0182818823F9F04093EB00ED
:100DC0000E94DC149093EA008093E90080E28C0F8B
:100DD000883008F061C0C77081E001C0880FCA95F3
:100DE000EAF7DF91CF911F910F91FF90EF90DF9085
:100DF000CF90BF90AF900C94230B1091EB00141385
:100E000040C08091E9009091EA000E94E8146C01D2
:100E1000B701C5010E940610C816D90690F5C0E2B8
:100E2000CD0F1D17B9F080E2810F883040F41770A4
:100E300081E001C0880F1A95EAF70E942A0BC8309A
:100E400048F481E09D2F977001C0880F9A95EAF7CA
:100E50000E94230B802F0E94100BC830E8F4D7703B
:100E600081E001C0880FDA95EAF7DF91CF911F91F9
:100E70000F91FF90EF90DF90CF90BF90AF900C94C8
:100E80002A0B80E28C0F883038F4C77081E001C0F3
:100E9000880FCA95EAF7E9CFDF91CF911F910F91A3
:100EA000FF90EF90DF90CF90BF90AF9008950F9399
:100EB0009C01CB01233F4CE5340759F1A8F4283DB0
:100EC000FCE53F0701F1293D4CE53407D1F1273D11
:100ED0003C4591F406E221EE41EE67ED7CE50E948F
:100EE000CC0680E00F910895253FFCE53F07E9F02F
:100EF000B0F0263F3C45F9F0FC018281882339F1AE
:100F00001092EB00EFCF07E225EE45EE68ED7CE5B1
:100F1000E6CF06E221EE40EE63EF7CE5E0CF07E2AC
:100F200025EE44EE64EF7CE5DACF06E221EE42EEF8
:100F300065EF7CE5D4CF07E225EE46EE66EF7CE573
:100F4000CECF08E221E045EE69ED7CE5C8CF81E037
:100F5000C9CFCF93DF93EC01FB018281882309F491
:100F600019C1C230FCE5DF07C0F1C6319CE5D907E5
:100F700030F09E012A5F3C452930310570F50E9412
:100F8000DA1390933A0280933902C031ECE5DE0720
:100F900009F4CFC008F05BC0C8308CE5D80709F46D
:100FA000B6C088F5C430ECE5DE0709F4A8C0C0F48B
:100FB000C2308CE5D80709F49CC080913902826068
:100FC000C330DC4509F498C08091390290913A020F
:100FD0000E94E8130E94900D80E0DF91CF91089568
:100FE000809139028061C630ECE5DE0709F484C0E7
:100FF000809139028860C730DC4508F47DC080915B
:101000003902806279C0CC308CE5D80709F489C0F8
:1010100070F4809139028C60CA30ECE5DE0709F487
:101020006BC008F478C0809139028E7F65C0CE30E5
:101030008CE5D80709F479C0809139028B7FCF30D5
:10104000DC4508F459C0809139028F7E55C0CB3FF2
:10105000ECE5DE0709F457C030F5C3318CE5D8075D
:1010600009F46FC078F4C131ECE5DE0709F465C01E
:10107000C231DC4509F0A8CF0E94900D8091390261
:101080008F773AC0C5318CE5D80709F462C008F4FF
:1010900076C080913A028160CA3FDC4509F094CF66
:1010A00080933A0291CFCF3FFCE5DF0709F44DC0B2
:1010B00088F480913A028D7FCD3F9CE5D90781F37A
:1010C00080913A028E7FCE3FDC4550F380913A0208
:1010D0008360E6CFC130FDE5DF0709F459C008F4AD
:1010E00044C080E0C230DD4509F06ECF0E94661436
:1010F0006BCF8091390281608093390265CF8091F6
:1011000039028460F9CF80913A028260C9CF809120
:1011100039028064F1CF0E94900D8091390280687D
:10112000EBCF809139028D7FE7CF80913902877FA5
:10113000E3CF809139028F7DDFCF809139028F7BA1
:10114000DBCF80913902837FD7CF80913A028C7FA9
:10115000A7CF8091390282FB992790F921E092274D
:1011600090FB82F990FB83F9C7CF80913A02982FC8
:10117000909591708E7F892B90FB81F991CF0E9481
:10118000900D90913902892F97FB87F98058B4CF41
:1011900081E0ACCF81E021CFCF93DF93EB018631AB
:1011A0009C4511F50E9412139A81992399F08A7A2D
:1011B00091E009F490E09093EC00811109C089E27C
:1011C0000E94ED120E945E1380E0DF91CF9108959E
:1011D00085E3F6CF8091EC00811104C089E20E9482
:1011E000F412F0CF85E3FBCF81E0EFCF9093F200D4
:1011F0008093F1000895E091F100F091F2003097B2
:1012000021F00190F081E02D099480E00895E091B3
:10121000F100F091F200309721F00280F381E02D8F
:10122000099408952091EF003091F00028173907B4
:1012300071F09093F0008093EF00E091F100F09155
:10124000F200309721F00680F781E02D099408958F
:101250002091ED003091EE002817390771F090933E
:10126000EE008093ED00E091F100F091F2003097F4
:1012700021F00084F185E02D0994089584B78068F9
:1012800084BF84B7806884BF0895089508950C943E
:10129000450908950C9449090E943E090E94460997
:1012A0000C94470981E008950C9452090E94D514CA
:1012B0000E94C3050E9444150C944A099F92AF9264
:1012C000BF92CF92DF92EF92FF920F931F93CF9333
:1012D000DF93CDB7DEB72A970FB6F894DEBF0FBE07
:1012E000CDBF0E940B060E945409882309F46DC0EB
:1012F00054EFA52E50E0B52E10E000E0902E802F88
:101300000E94B5056C01F501E190F1905F01E816CE
:10131000F90609F454C080918A0181FD0E94BE053E
:1013200097012C253D2580E0EE24E394F12CA901C2
:101330004E215F21452BE9F18E839F82CE20DF2055
:1013400081E0CD2809F480E088870E94DC14816068
:10135000782F9A8789874E815F8168858A850E9468
:10136000080A000F111FF801EC50FF4F8081918196
:10137000E826F926F182E0820E94FB089091F300B2
:101380008917A1F10E94FB088093F3002A960FB6FB
:10139000F894DEBF0FBECDBFDF91CF911F910F91AB
:1013A000FF90EF90DF90CF90BF90AF909F900C9404
:1013B00055038F5FEE0CFF1C8F3009F0B8CF0F5F25
:1013C0001F4F0630110509F099CF8FEF89838A836B
:1013D0001B820E94DC148160782F9D838C8349815D
:1013E0005A816B818D810E94080AC6CF2A960FB65A
:1013F000F894DEBF0FBECDBFDF91CF911F910F914B
:10140000FF90EF90DF90CF90BF90AF909F900895A6
:10141000CF93DF93CDB7DEB72B970FB6F894DEBF2F
:101420000FBECDBF4F83588769877A878B871E820F
:101430001D8285E0FE013796DE01119601900D9226
:101440008A95E1F749815A816B817C818D819E81EA
:101450002B960FB6F894DEBF0FBECDBFDF91CF91B4
:101460000C940910FC01808191810C94BF12CF93E0
:10147000C82F882309F483C08238C1F40E94FB0876
:1014800081FD7DC089E30E94ED120E945E132FEF63
:1014900081EE94E0215080409040E1F700C00000D0
:1014A00089E30E94F412CF910C945E138338A1F467
:1014B0000E94FB0880FD63C083E50E94ED120E943C
:1014C0005E132FEF81EE94E0215080409040E1F7D1
:1014D00000C0000083E5E5CF8438A1F40E94FB083A
:1014E00082FD4DC087E40E94ED120E945E132FEF33
:1014F00081EE94E0215080409040E1F700C0000070
:1015000087E4CFCF8CEF8C0F813A90F46C2F8091D1
:101510006000909161000E947D14882329F08C2F37
:101520000E94F4120E945E138C2F0E94ED12BBCF1A
:1015300080E28C0F883048F4C77081E001C0880FCA
:10154000CA95EAF70E941513AECFEBE5EC0FE33036
:1015500040F4F0E0EE51FF4F808190E0CF910C9489
:101560001209C85AC73158F4EC2FF0E0EE0FFF1FF4
:10157000EC54FF4F80819181CF910C942809CF9139
:101580000895882309F44BC0823871F40E94FB0847
:1015900081FF45C089E30E94ED120E945E1389E33A
:1015A0000E94F4120C945E13833859F40E94FB08D5
:1015B00080FF35C083E50E94ED120E945E1383E533
:1015C000EFCF843859F40E94FB0882FF28C087E4DB
:1015D0000E94ED120E945E1387E4E2CF9CEF980F09
:1015E000913AF0F290E2980F983050F4877091E0C1
:1015F00001C0990F8A95EAF7892F0E941B13D2CF59
:101600009BE5980F933020F490E080E00C94120951
:10161000885A873120F490E080E00C9428090895DE
:10162000CF93C82F0E94370AC93349F42FEF87EEB2
:1016300093E0215080409040E1F700C000008C2FE3
:10164000CF910C94C10A882321F00E9415130C94A9
:101650005E130895882321F00E941B130C945E13DF
:101660000895BF92CF92DF92EF92FF920F931F9354
:10167000CF93DF936C01D62FC72FFC010581029514
:101680000F70128111110E9432130E940B13E82E69
:10169000882391F01123D1F08C2F807F803421F0AA
:1016A00080E28D0F883090F082E00E94A9130E94A2
:1016B0000B1391E0E82EE926BC2EB2949FE0B922EC
:1016C000EB2DF0E0E256F74E0C945518E12CF4CFD8
:1016D0000C2F0F70C07F11F00295007F1123A9F02D
:1016E000002359F080E28D0F883010F0D11109C02D
:1016F000802F0E9415130E945E138D2F0E94370ABF
:1017000014C0802F0E942513F6CF8D2F0E94C10A8E
:10171000002359F080E28D0F883010F0D1112CC0D9
:10172000802F0E941B130E945E132B2D2850330B19
:101730002430310520F40E94FB080E945503EE205E
:1017400009F493C10E94071380FD8FC1F601128234
:101750000E9401130E948D11C6010E94560D0E9425
:101760000113DF91CF911F910F91FF90EF90DF90C8
:10177000CF90BF900C94AE11802F0E942B13D3CF2B
:10178000FC2FFF70FF2EC07FC03219F0F29480EF63
:10179000F822DD2369F0D13049F1112391F10023C2
:1017A00051F1F601858180FFA8CF8F70858323C01A
:1017B000112381F0011106C00E9445138F290E9458
:1017C000230BB3CF0130C1F70E9445138F290E942C
:1017D0004B13ABCF011106C00E9454138F2D0E94F2
:1017E0002A0BA3CF013009F4A0CFF6CF112329F0A3
:1017F000063008F09ACF8F2DE2CF053008F095CF54
:10180000EDCF002359F3D93349F4FFEF27EE33E04E
:10181000F15020403040E1F700C000008D2F0E94C1
:10182000C10A83CF8C2F86958695837069F08130AD
:1018300009F07BCF8D2F9C2F9370111102C090E087
:1018400080E00E94280971CF8D2F9C2F9370111179
:1018500002C090E080E00E94120967CF8C2F837055
:1018600009F041C0111161CF4D2F42954695477047
:10187000440F440F0D2F0F7010E030E020E0042ED5
:1018800004C0000F111F221F331F0A94D2F760E01B
:1018900070E0CB01D4FF0FC06FE070E080E090E01B
:1018A00004C0660F771F881F991F4A95D2F760956D
:1018B000709580959095C695C695C370602B712BD9
:1018C000822B932BC23049F058F4C13019F00E949A
:1018D0003F112BCF0E942D1128CF0E94511125CFEF
:1018E0000E942B1122CF8695112311F08C2F81702D
:1018F000882309F41ACF4D2F429546954770440F1F
:10190000440F0D2F0F7010E030E020E0042E04C0D3
:10191000000F111F221F331F0A94D2F760E070E0FE
:10192000CB01D4FF0FC06FE070E080E090E004C016
:10193000660F771F881F991F4A95D2F7609570959B
:1019400080959095C695C695C370602B712B822BA0
:10195000932BC23049F058F4C13019F00E940412A0
:10196000E4CE0E94F211E1CE0E941612DECE0E9459
:101970006711DBCECF70112329F08C2F0E948D11BF
:101980008D2F1DCF8D2F0E942A0B8C2F0E94AE1100
:10199000CCCED23F89F160F4D03FC9F0D13F29F1DC
:1019A000112309F442C00111A8CE8C2F8F7121C0E0
:1019B000D33F39F1D43FA1F7112369F1CF718C2FB7
:1019C0000E948D1163E08C2F0E949413AECE1123E0
:1019D00041F0053008F0A9CE8C2F8F710E94D111F3
:1019E000A4CE063008F0A1CEF7CF8C2F8F71112333
:1019F00069F20E948D1199CE8C2F8F711123C9F33A
:101A0000C5CF112329F08C2F8F710E9478118DCEB4
:101A10000E9473118ACE81E00E94A913023008F45B
:101A200084CE82E00E94A91380CE002359F0D933DE
:101A300009F0F4CE8FEF97EEE3E081509040E04064
:101A4000E1F7EACE8C2F8F71A1CF4C2F4F706D2F05
:101A5000C6010E94A9030E94A31067CE4C2F4F70AD
:101A60006D2FC6010E94AC0360CEDF91CF911F9114
:101A70000F91FF90EF90DF90CF90BF9008950F935C
:101A80001F93CF93DF93EC01688179818A810E9453
:101A9000C9128C010E9428120E942A11B801CE019D
:101AA000DF91CF911F910F910C94310BCF93DF9366
:101AB000EC018B819C81892B29F088819981892374
:101AC0008F3F59F4DF91CF910895CE010E943F0DD1
:101AD000CE01DF91CF910C943703CE010E946D03AC
:101AE0008111F3CF0E940B13882361F38A8188232D
:101AF00049F382E0DF91CF910C94A9130E94321335
:101B00000E9442130E945E1390E080E00E9412093E
:101B100090E080E00C9428090E94FB120C947E0D4A
:101B20000E9422130C948C0DE92FE295EF70E25085
:101B3000EE3070F4F0E0E255F74E0C945518803F0B
:101B400019F020F4883E20F481E00895843FE1F309
:101B500080E00895883EC0F3813FD1F7F5CF93FB35
:101B6000882780F908950E94BF120C94940DCF939A
:101B7000DF9300D000D00F92CDB7DEB70F900F905B
:101B80000F900F900F90DF91CF910895CF93DF9337
:101B900000D000D000D0CDB7DEB726960FB6F894AF
:101BA000DEBF0FBECDBFDF91CF9108951F93CF93BE
:101BB000DF93C091010116E0809102018C1304C0F3
:101BC000DF91CF911F910895D0E01C9FF0011D9FE0
:101BD000F00D1124ED5FFE4F4081518162817381D0
:101BE000848195810E94C60D2196C770E5CF4091F2
:101BF000330150913401609135017091360180912B
:101C00003701909138010C94C60D1F93CF93DF9349
:101C100080913801807FA9F480913501882389F073
:101C200080910101C09102016091330170913401F2
:101C3000A0913601B0913701D62FD72316E0C813F3
:101C400004C0DF91CF911F91089590E0109711F09B
:101C5000DF3F19F401968770F2CF189F9001199F0A
:101C6000300D1124F901ED5FFE4F41814713F2CF92
:101C700040814613EFCF42814111ECCF4381548123
:101C80004A1B5B0B483C510528F7809138018F7047
:101C9000806180933801F901E85FFE4F80818F7089
:101CA0008061808383E391E00E94560DDF91CF91A4
:101CB0001F910C94D60DAF92BF92CF92DF92EF920C
:101CC000FF920F931F93CF93DF93CDB7DEB761974A
:101CD0000FB6F894DEBF0FBECDBF8C0185E0F801D2
:101CE000DE011D9601900D928A95E1F7F801408181
:101CF0005181E28083E3C82E81E0D82E60913601C5
:101D0000709137016115710509F461C1909133013A
:101D100020913401892F82238F3F09F458C1A38079
:101D2000B480F0903501F501E61BF70BFF2009F4B4
:101D3000FCC080913801382F307FE83CF10508F075
:101D4000B2C0311179C0FE2C251323C0941321C0D9
:101D5000E1101FC08F708061809338010E94F70DE1
:101D6000C6010E94560D80913801F80185838F2DA0
:101D700061960FB6F894DEBF0FBECDBFDF91CF9155
:101D80001F910F91FF90EF90DF90CF90BF90AF9099
:101D90000895AB2829F0842F85238F3F09F033C1A4
:101DA00080E0F82FF170DF2E80FF3CC080910101B0
:101DB0002091020136E0821315C04D875E878D8524
:101DC0009E850E94BF12292F22952F702230F0F09D
:101DD000243018F59F70F1F0F8019581907FD1F4CF
:101DE000D12C1EC090E0389FF001399FF00D1124D6
:101DF000ED5FFE4F6181651306C06081641303C00F
:101E000062816E110FC001968770D5CF9F7011F05F
:101E1000882331F3805E883018F3C8010E94560D84
:101E2000FD2CA5CFEE2009F4A2CF8091380181606E
:101E300080933801F12C9BCF251306C0941304C066
:101E4000F801EE2009F48DC04D875E878D859E8553
:101E50000E94B30D882319F1EE2009F18091380119
:101E6000803270F0209133013091340138872F8314
:101E70001986BB86AA868C87CE0107960E94560DCE
:101E800086E0F801A3E3B1E001900D928A95E1F7B5
:101E90000E94050E0E94F70DFF24F39468CFC8013D
:101EA0000E94560DF9CF311113C07A2DB98AA88A34
:101EB0006E2D89890E94B70D83E391E00E94560D33
:101EC00086E0F60111928A95E9F70E94F70DB2CFEC
:101ED00025130FC094130DC0E1100BC0F8018583CA
:101EE000C8010E94560D86E0F60111928A95E9F725
:101EF0003ECF4D875E878D859E850E94B30D8823DA
:101F000071F2EE2061F280913801803208F4B8CF8E
:101F100020913301309134013A8329831B82BD82A1
:101F2000AC828E83CE010196A9CFE83CF10508F082
:101F300041C0FE2CEE2009F4B2CF25132AC0941321
:101F400028C08091380180FD1BC0982F907FC1F080
:101F5000F8018583903F31F0982F907F905F8F70CC
:101F6000892B8583C8010E94560D86E0F801A3E302
:101F7000B1E001900D928A95E1F70E94F70DF7CE3E
:101F800086E0F801A3E3B1E001900D928A95E1F7B4
:101F9000EECE4D875E878D859E850E94B30D8111A3
:101FA0006FCF80913801816080933801C8010E9411
:101FB000560DDDCE7A2DB98AA88A6E2D89890E94A8
:101FC000B70D86E0F60111928A95E9F7D6CFEE209B
:101FD00009F465CF4D875E878D859E850E94B30D80
:101FE000F82E882309F45BCF86E0F801A3E3B1E083
:101FF00001900D928A95E1F783E391E00E94320A05
:102000000E94050EBACF81E08E25CBCE88EC90E001
:1020100008951F93CF93DF93CDB7DEB72C970FB6FC
:10202000F894DEBF0FBECDBF4F83588769877A878C
:102030008B879C87CE0107960E945B0E882369F0F0
:102040008A859B85892B39F04F815885842F85237C
:102050008F3F09F071C016E05FC086E0FE01379641
:10206000DE01119601900D928A95E1F78A859B8594
:10207000892B89F38F81988589238F3F61F3209184
:10208000020130E0C9010196877099274091010152
:102090004817190671F40E94900D109202011092D7
:1020A000010186E0E3E3F1E0DF011D928A95E9F7A3
:1020B000D2CF96E0929FD001939FB00D1124AD5FD7
:1020C000BE4FFE01319601900D929A95E1F78093F3
:1020D00002010E94D60DBFCF819FC00111248D5FE8
:1020E0009E4F0E945B0E8823E9F0E09101011E9F44
:1020F000F0011124ED5FFE4F4081518162817381B7
:10210000848195810E94C60D8091010190E0019625
:1021100087709927809301018091010190910201BC
:102120008913DACF2C960FB6F894DEBF0FBECDBF61
:10213000DF91CF911F91089569857A858B859C8564
:102140000E94C60D88CFEF92FF920F931F93CF93FB
:10215000DF938C01892B81F0F12CEE24E394E801CC
:102160002196F8018491843770F4843008F05FC0C0
:102170008130B1F08230A1F1DF91CF911F910F91A9
:10218000FF90EF900895853709F44CC008F43DC0E6
:102190009CE7980F903780F78F770E94C10A49C05B
:1021A0000E5F1F4FFE01849190E2980F983060F40B
:1021B0008770FE2D01C0FF0F8A95EAF78F2F0E94CE
:1021C00035130E945E1302C00E94370A8F2D815082
:1021D00030F2EFE9FFE03197F1F700C00000F7CFF0
:1021E0000E5F1F4FFE01849190E2980F983050F4DB
:1021F0008770FE2D01C0FF0F8A95EAF78F2F0E948E
:102200003B13DFCF0E94C10AE1CF0E5F1F4FFE01DB
:10221000C491C150D8F28FE99FE00197F1F700C057
:102220000000F7CF0E5F1F4FFE01F490CFCF0E944A
:10223000370A8E01CBCF08950C941B110E941C11FC
:102240006093790170937A0180937B0190937C0174
:102250000C947E0D08950C941E110F931F93009102
:10226000790110917A0120917B0130917C01602BE2
:10227000712B822B932B1F910F910C941E110F9396
:102280001F930091790110917A0120917B01309187
:102290007C0160237123822393231F910F910C945F
:1022A0001E110F931F930091790110917A012091D3
:1022B0007B0130917C0160277127822793271F9132
:1022C0000F910C941E110C941B110C9463110E941D
:1022D00065116093750170937601809377019093F7
:1022E00078010C947E0D60E070E0CB010C946711D6
:1022F0000F931F9341E050E060E070E08A019B0182
:1023000004C0000F111F221F331F8A95D2F7C90185
:10231000B8011F910F910C9467110F931F9341E027
:1023200050E060E070E004C0440F551F661F771F47
:102330008A95D2F78091750190917601A0917701ED
:10234000B09178018A019B01082B192B2A2B3B2B7A
:10235000C901B8011F910F910C9467110F931F933E
:1023600041E050E060E070E004C0440F551F661F7C
:10237000771F8A95D2F7CB01BA0160957095809549
:10238000909500917501109176012091770130911F
:10239000780160237123822393231F910F910C9462
:1023A00067110F931F9341E050E060E070E004C0BC
:1023B000440F551F661F771F8A95D2F780917501CC
:1023C00090917601A0917701B09178018A019B01EB
:1023D000082719272A273B27C901B8011F910F9108
:1023E0000C9467110F931F93009175011091760162
:1023F0002091770130917801602B712B822B932BE8
:102400001F910F910C9467110F931F930091750109
:10241000109176012091770130917801602371232A
:10242000822393231F910F910C9467110F931F9395
:10243000009175011091760120917701309178011A
:1024400060277127822793271F910F910C946711A2
:1024500008952FE0929F800D1124982F977041E0EE
:1024600001C0440F9A95EAF786958695869595E082
:10247000899FF0011124E75CFE4F90E080E070E05E
:102480005191DF0111979B01082E02C036952795C7
:102490000A94E2F7217021952527242325272C93E0
:1024A00001968530910561F708952FE0929F800D88
:1024B0001124982F977086958695869525E0829FA2
:1024C000F0011124E75CFE4F50E040E080E02191F4
:1024D00030E0092E02C0369527950A94E2F7217064
:1024E0003327042E01C0220F0A94EAF7822B4F5F94
:1024F0005F4F4530510559F70895BF92CF92DF9253
:10250000EF92FF920F931F93CF93DF938C01C090B4
:102510007501D0907601E0907701F090780180917C
:10252000790190917A01A0917B01B0917C01C82A38
:10253000D92AEA2AFB2ACFE1D0E0BC2ED701C60176
:102540000C2E04C0B695A795979587950A94D2F757
:1025500080FD0EC0219788F7B12C8B2DDF91CF9194
:102560001F910F91FF90EF90DF90CF90BF90089553
:10257000B8018C2F0E94C903019761F3EECFCF936E
:10258000DF93EC010E947D12BE01DF91CF910C948C
:10259000C9031F93CF93DF93EB019091000199231F
:1025A00031F0CB01DF91CF911F910C94BF128823A2
:1025B00079F0CB010E947D12182F682FCE010E9466
:1025C0002912BE01812FDF91CF911F910C94C90375
:1025D000CB010E945512182FF4CF682F8091600014
:1025E000909161000C94B314682F809160009091D9
:1025F00061000C94B51480916000909161000C947E
:10260000B71480917D018595859585950895809174
:102610007D018770089590917D01977081E009F4A4
:1026200080E0089580918901089590918901892B16
:1026300080938901089580959091890198239093C2
:102640008901089510928901089590918801892B3C
:1026500080938801089580959091880198239093A4
:102660008801089510928801089590918701892B1F
:102670008093870108958095909187019823909386
:102680008701089510928701089580917E01089531
:1026900008950C94481390917E01981721F080932F
:1026A0007E010C944913089580917E01882329F0BE
:1026B00010927E0180E00C9449130895E09160002F
:1026C000F0916100809189018083E0916000F09138
:1026D0006100808190918801892B8083E091600066
:1026E000F0916100808190918701892B8083909186
:1026F0007E01992381F0E0916000F091610080817A
:10270000892B808380916000909161000E946B14FE
:1027100081110E94541380916000909161000C948B
:10272000070908950C94911398E0899F9001112452
:10273000622B60937D010E948D1180917D018595B2
:10274000859585950C94921310927D0180E00C94F0
:10275000921390917D018095892380937D01282F8C
:10276000277071F4282F082E000C330B92171306D4
:1027700039F08595859585950E94AE110C94A4132A
:1027800008956FEF7FEF90E080E00C94861890E062
:1027900080E00E94631821E08C3E9E4F09F020E00B
:1027A000822F089582E090E00C945B1883E090E023
:1027B0000C945B18CF9384E090E00E945B18C82FC4
:1027C00081E290E00E945B18982F8C2FCF910895A2
:1027D000CF93C92F682F84E090E00E9469186C2F76
:1027E00081E290E0CF910C946918AB01BC018FE0BD
:1027F00090E00C947A18AB01BC0183E190E00C945A
:102800007A1860E070E0CB010C94FB1360E070E09C
:10281000CB010E94F5130C9401146CEE7EEF90E056
:1028200080E00E94861860E082E090E00E946918D3
:1028300060E083E090E00E946918109279011092A4
:102840007A0110927B0110927C0160E084E090E0BC
:102850000E94691860E081E290E00E94691860E0DF
:1028600085E090E00E94691860E086E090E00E94B8
:1028700069186FEF87E090E00E94691840E050E02F
:10288000BA0188E090E00E947A1860E08DE090E064
:102890000E94691840E050E0BA0188E190E00E948F
:1028A0007A1860E087E190E00E94691840E050E00B
:1028B000BA018CE190E00E947A1860E080E290E03A
:1028C0000E9469180C9406140C940D14682F8EE065
:1028D00090E00C9469189C012E5F3F4FAC01485F5B
:1028E0005F4F80E02417350709F40895F9019191AD
:1028F0009F019923B9F38F5FF5CF662349F0FC015F
:10290000329608962191261729F0E817F907D1F792
:1029100080E0089581E008959C01FC0132969FEFCC
:1029200080E04191461751F09F3F19F4411101C0D9
:10293000982F8F5F8630A9F79F3F09F40895290FDC
:10294000311D97FD3A95F90162830895FC01329695
:1029500008962191261303C0DF0111971C92E817F6
:10296000F907B9F708950C948C140C94A6140296E8
:1029700026E0FC0111922A95E9F70895089508953B
:10298000CF930E94BE140E940B060E94BF14C0E0A9
:102990008C2F0E94B505892B31F4CF5FC630C1F76B
:1029A00080E0CF91089581E0FCCF8BE083BF8AEF78
:1029B0008CBF82E089BF08952FB7F89480913502CB
:1029C00090913602A0913702B09138022FBF08953E
:1029D0009C014FB7F8948091350290913602A091F6
:1029E0003702B09138024FBF821B930B0895789441
:1029F0001F921FB61F9211248F939F93AF93BF9383
:102A00008091350290913602A0913702B091380240
:102A10000196A11DB11D8093350290933602A093BB
:102A20003702B0933802BF91AF919F918F911F9061
:102A30001FBE1F90189588E198E00FB6F894A895EE
:102A400081BD0FBE91BDA895F894D8E0CEE528E3EE
:102A5000299320E0299314BEFFCF08950C94C1134D
:102A60000E940B068FE39CE90197F1F700C000007C
:102A70000E940B0680E00E94B50580FF04C00E9402
:102A80002E150C941B1508950E94C713811102C0C6
:102A90000E9464140E94D21380938A010E94DA1368
:102AA00090933A02809339020E94D613682F70E007
:102AB00090E080E00E942B11609175017091760189
:102AC00080917701909178010C9465110E94DC143B
:102AD0008C010E944C090E9459160E94F6080E941F
:102AE0003A188B9A80E0815039F58B987894FFEFF3
:102AF00020E732E0F15020403040E1F700C0000014
:102B00000E945609C0E0DCE0809162028823F1F067
:102B1000109262020E94DC148C010E944A1780917C
:102B20006802882329F08091460284FD0E945E0994
:102B30000E940016C0E0E8CFA895EFE9FFE03197CA
:102B4000F1F700C00000CFCFC1E0DECFC8010E9486
:102B5000E814069710F4CC2301F30E94C014C82F88
:102B6000882391F3F89491B3939A892F8C6081BB59
:102B700082B38D2782BB8FE7E8E3F1E08150E0402C
:102B8000F040E1F700C0000082B38D2782BB91BB0B
:102B900093987894B9CF80911C0208950895CF93AB
:102BA000DF9300D00F92CDB7DEB790918D019813CF
:102BB00007C020918B0130918C012617370791F0C7
:102BC00080938D0170938C0160938B0189837B834B
:102BD0006A8380917F0284FF05C063E0CE01019685
:102BE0000E9446170F900F900F90DF91CF9108959C
:102BF000BC0184E00C94CF15BC0183E00C94CF158C
:102C0000CF93DF93CAE0D0E08091460284FF1AC0E0
:102C10008091990190919A01981789F028E0829FFC
:102C2000C001112468E085569E4F0E944217809192
:102C3000990190E001968F70992780939901DF9117
:102C4000CF9108950E944A178FE99FE00197F1F70D
:102C500000C000002197C1F6F2CFCF93DF93EC01C3
:102C6000A0919A01B0E0CD0101968F709927209133
:102C70009901281779F093E0AA0FBB1F9A95E1F705
:102C8000A556BE4F98E0FE0101900D929A95E1F78E
:102C900080939A010E944A170E94001688E0FE0164
:102CA000A1E9B1E001900D928A95E1F7DF91CF9112
:102CB000089582E690E00895FC018081807680325C
:102CC000F1F48181813061F484819581892BB9F49B
:102CD00081E991E0909364028093630288E0089513
:102CE000823041F48BE192E090936402809363021E
:102CF00081E008958A3029F4838180931B0280E06B
:102D000008958930E1F7828193818115924069F4B9
:102D100084819581892B49F481E08093900186819B
:102D2000978190938F0180938E018FEF0895FC011E
:102D300080918E0190918F01892B61F0809190019B
:102D4000813041F4908190931C0210928F01109277
:102D50008E0108958FEF08950895FC0193819330BB
:102D600059F130F49130C1F09230F1F080E00895E3
:102D7000913209F445C09232C9F784819581009758
:102D800009F44FC0019791F781E392E090936402B8
:102D90008093630282E3089587EF91E09093640249
:102DA0008093630282E108958CEB91E0909364023A
:102DB000809363028BE308958281813089F08823B8
:102DC00039F08230A9F0833089F689E092E002C0C0
:102DD0008DE292E0909364028093630284E0089510
:102DE0008FE192E090936402809363028CE00895F7
:102DF0008FE092E090936402809363028EE00895E6
:102E00008281882331F0813009F0B0CF87EE91E0E4
:102E100002C08EEC91E0909364028093630289E09B
:102E2000089583E692E0909364028093630280E4C5
:102E300008951F93CF93DF93E82F792F162FEA0180
:102E4000888184FF1CC0298188E828272983CE0136
:102E50000296DC012E2F372F512F5E0FF9012191A1
:102E60002D939F01452F4E1B1416C4F3612F0E9412
:102E7000AD011C5F1883DF91CF911F9108958AE502
:102E80008883E5CF46E452E00C9419174FE752E0EF
:102E90000C941917CF93DF9360916502635067FD1F
:102EA00012C080916102CCE0D0E0C81BD109C759A3
:102EB000DD4F80916002803108F054C0CE010E9445
:102EC000AC161092650280916D0084FF3EC0809127
:102ED0006C008F3FD1F1C82F893008F0C8E0982FDF
:102EE0009C1B90936C0090913B0228E89227909352
:102EF0003B028823E9F08091630290916402209163
:102F00005F0226FFAEC0FC012C2FACE3B2E034918F
:102F10003D9331962150D9F79C012F5F3F4F8FEFA2
:102F20008C0F820F932F911D909364028093630204
:102F30006C2F8CE392E00E94AD01CC5FCC3019F095
:102F40008FEF80936C00C0936D0084E190B39C7010
:102F500031F48150D9F71092660210925E02DF912F
:102F6000CF9108958D3209F069C0683009F0A9CF7A
:102F700083EC80933B028AE580936D0010925F02A0
:102F80008881807671F0CE010E945C168F3FC1F47B
:102F9000988197FD8E8190E890935F0280936C00FA
:102FA00090CF2A81109244029981911111C0109200
:102FB000450224E432E082E030936402209363020D
:102FC0009F819111EBCF9E81981740F7892FE6CF13
:102FD000953029F42093660224E432E0EDCF963058
:102FE00099F49B81913021F4CE010E94AD1608C066
:102FF0009230D1F39330C1F39132B1F39232A1F315
:1030000090E490935F02C2CF983089F0993019F420
:1030100020936802E1CF9A3071F09B30E9F69BE48F
:10302000909347029093800290935302D5CF28E665
:1030300032E081E0C1CF24E432E0FBCF80915F0237
:1030400087FF3FCFCE010E9497168F3F21F48EE17C
:1030500080936D0036CF882309F433CF10926C0033
:1030600030CFDC012C2FECE3F2E03D913193215085
:10307000E1F752CFCF93DF9385B7886085BF8BB7D9
:1030800080688BBFC6E4D2E08BE48983AFE7B2E00F
:1030900011968C931197E2E5F2E081838AE58883AB
:1030A0008C938083DF91CF910895EE0FFF1F0590E1
:1030B000F491E02D0994E199FECF9FBB8EBBE09A7D
:1030C00099278DB30895A8E1B0E042E050E00C9458
:1030D0008E18262FE199FECF9FBB8EBBE09A0197F9
:1030E0000DB2021631F02DBB0FB6F894E29AE19AB8
:1030F0000FBE08950396272F0E946A180E94691830
:10310000252F0E946A18242F0C946A180196272FE5
:103110000E946A180C946918DC01CB01FC01E1994A
:10312000FECF06C0FFBBEEBBE09A31960DB20D920A
:1031300041505040B8F70895F894FFCF680B680BE2
:10314000C00BC00B120C950B950B950B2E0CBA0CEB
:10315000C90CC90C250D950B950B2E0D9F0D9F0DC0
:10316000A80DA80DAA0DA80DA80DA80D9F0D9F0DC7
:08317000AF0DA80DA80DAF0D75
:103178007F01CB152D16CE15FC15F815FF5AE20068
:10318800E900EA00B500B600B700CD008301CC0025
:103198008A019201940121022302240225022602B7
:1031A80027022A02B300B4006F0070008182836096
:1031B8006162636401000506343332313007959447
:1031C80093929190E200E900EA00B500B600B700DA
:1031D800CD008301CC008A019201940121022302CF
:1031E80024022502260227022A02B300B4006F0037
:0631F800700081828300DB
:00000001FF
